{
  "_format": "hh-sol-artifact-1",
  "contractName": "PayCheckGuard",
  "sourceName": "contracts/PayCheckGuard.sol",
  "abi": [
    {
      "inputs": [],
      "stateMutability": "nonpayable",
      "type": "constructor"
    },
    {
      "inputs": [
        {
          "internalType": "address",
          "name": "owner",
          "type": "address"
        }
      ],
      "name": "OwnableInvalidOwner",
      "type": "error"
    },
    {
      "inputs": [
        {
          "internalType": "address",
          "name": "account",
          "type": "address"
        }
      ],
      "name": "OwnableUnauthorizedAccount",
      "type": "error"
    },
    {
      "inputs": [],
      "name": "ReentrancyGuardReentrantCall",
      "type": "error"
    },
    {
      "anonymous": false,
      "inputs": [
        {
          "indexed": true,
          "internalType": "address",
          "name": "previousOwner",
          "type": "address"
        },
        {
          "indexed": true,
          "internalType": "address",
          "name": "newOwner",
          "type": "address"
        }
      ],
      "name": "OwnershipTransferred",
      "type": "event"
    },
    {
      "inputs": [
        {
          "internalType": "address",
          "name": "_contractor",
          "type": "address"
        },
        {
          "internalType": "string[]",
          "name": "_descriptions",
          "type": "string[]"
        },
        {
          "internalType": "uint256[]",
          "name": "_amounts",
          "type": "uint256[]"
        },
        {
          "internalType": "uint256[]",
          "name": "_laborPercentages",
          "type": "uint256[]"
        }
      ],
      "name": "createProject",
      "outputs": [],
      "stateMutability": "payable",
      "type": "function"
    },
    {
      "inputs": [],
      "name": "nextProjectId",
      "outputs": [
        {
          "internalType": "uint256",
          "name": "",
          "type": "uint256"
        }
      ],
      "stateMutability": "view",
      "type": "function"
    },
    {
      "inputs": [],
      "name": "owner",
      "outputs": [
        {
          "internalType": "address",
          "name": "",
          "type": "address"
        }
      ],
      "stateMutability": "view",
      "type": "function"
    },
    {
      "inputs": [
        {
          "internalType": "uint256",
          "name": "",
          "type": "uint256"
        },
        {
          "internalType": "uint256",
          "name": "",
          "type": "uint256"
        }
      ],
      "name": "projectWorkers",
      "outputs": [
        {
          "internalType": "address",
          "name": "",
          "type": "address"
        }
      ],
      "stateMutability": "view",
      "type": "function"
    },
    {
      "inputs": [
        {
          "internalType": "uint256",
          "name": "",
          "type": "uint256"
        }
      ],
      "name": "projects",
      "outputs": [
        {
          "internalType": "address",
          "name": "client",
          "type": "address"
        },
        {
          "internalType": "address",
          "name": "contractor",
          "type": "address"
        },
        {
          "internalType": "uint256",
          "name": "totalBudget",
          "type": "uint256"
        },
        {
          "internalType": "bool",
          "name": "exists",
          "type": "bool"
        }
      ],
      "stateMutability": "view",
      "type": "function"
    },
    {
      "inputs": [
        {
          "internalType": "uint256",
          "name": "_projectId",
          "type": "uint256"
        },
        {
          "internalType": "uint256",
          "name": "_mIndex",
          "type": "uint256"
        }
      ],
      "name": "releaseMilestone",
      "outputs": [],
      "stateMutability": "nonpayable",
      "type": "function"
    },
    {
      "inputs": [],
      "name": "renounceOwnership",
      "outputs": [],
      "stateMutability": "nonpayable",
      "type": "function"
    },
    {
      "inputs": [
        {
          "internalType": "uint256",
          "name": "_projectId",
          "type": "uint256"
        },
        {
          "internalType": "address[]",
          "name": "_workers",
          "type": "address[]"
        },
        {
          "internalType": "uint256[]",
          "name": "_shares",
          "type": "uint256[]"
        }
      ],
      "name": "setWorkers",
      "outputs": [],
      "stateMutability": "nonpayable",
      "type": "function"
    },
    {
      "inputs": [
        {
          "internalType": "address",
          "name": "newOwner",
          "type": "address"
        }
      ],
      "name": "transferOwnership",
      "outputs": [],
      "stateMutability": "nonpayable",
      "type": "function"
    },
    {
      "inputs": [
        {
          "internalType": "uint256",
          "name": "",
          "type": "uint256"
        },
        {
          "internalType": "address",
          "name": "",
          "type": "address"
        }
      ],
      "name": "workerShares",
      "outputs": [
        {
          "internalType": "uint256",
          "name": "",
          "type": "uint256"
        }
      ],
      "stateMutability": "view",
      "type": "function"
    }
  ],
  "bytecode": "0x6080604052348015600f57600080fd5b5060016000553380603a57604051631e4fbdf760e01b81526000600482015260240160405180910390fd5b6041816046565b506098565b600180546001600160a01b038381166001600160a01b0319831681179093556040519116919082907f8be0079c531659141344cd1fd0a4f28419497f9722a3daafe3b4186f6b6457e090600090a35050565b61101a806100a76000396000f3fe6080604052600436106100915760003560e01c8063a504a96111610059578063a504a961146101a9578063d79eed25146101ef578063dbaf091014610202578063e935b7b114610222578063f2fde38b1461023857600080fd5b8063107046bd146100965780632361bdc91461011c578063458c83b014610154578063715018a6146101765780638da5cb5b1461018b575b600080fd5b3480156100a257600080fd5b506100ea6100b1366004610a35565b600260208190526000918252604090912080546001820154928201546003909201546001600160a01b0391821693909116919060ff1684565b604080516001600160a01b03958616815294909316602085015291830152151560608201526080015b60405180910390f35b34801561012857600080fd5b5061013c610137366004610a4e565b610258565b6040516001600160a01b039091168152602001610113565b34801561016057600080fd5b5061017461016f366004610b64565b610290565b005b34801561018257600080fd5b5061017461039d565b34801561019757600080fd5b506001546001600160a01b031661013c565b3480156101b557600080fd5b506101e16101c4366004610c36565b600560209081526000928352604080842090915290825290205481565b604051908152602001610113565b6101746101fd366004610c62565b6103b1565b34801561020e57600080fd5b5061017461021d366004610a4e565b610543565b34801561022e57600080fd5b506101e160035481565b34801561024457600080fd5b50610174610253366004610de3565b6108d4565b6004602052816000526040600020818154811061027457600080fd5b6000918252602090912001546001600160a01b03169150829050565b6000838152600260205260409020600101546001600160a01b031633146102fe5760405162461bcd60e51b815260206004820152601f60248201527f4f6e6c7920636f6e74726163746f722063616e2073657420776f726b6572730060448201526064015b60405180910390fd5b6000838152600460209081526040909120835161031d928501906109bb565b5060005b82518110156103975781818151811061033c5761033c610e05565b602002602001015160056000868152602001908152602001600020600085848151811061036b5761036b610e05565b6020908102919091018101516001600160a01b0316825281019190915260400160002055600101610321565b50505050565b6103a5610912565b6103af600061093f565b565b600034116103f65760405162461bcd60e51b81526020600482015260126024820152710427564676574206d757374206265203e20360741b60448201526064016102f5565b600380546000918261040783610e31565b90915550600081815260026020819052604082208054336001600160a01b0319918216178255600180830180549092166001600160a01b038c1617909155349282019290925560038101805460ff19169092179091559192505b855181101561053a5781600401604051806080016040528088848151811061048b5761048b610e05565b602002602001015181526020018784815181106104aa576104aa610e05565b602002602001015181526020018684815181106104c9576104c9610e05565b602090810291909101810151825260009181018290528354600181018555938252902081519192600402019081906105019082610ed3565b506020820151600182810191909155604083015160028301556060909201516003909101805460ff191691151591909117905501610461565b50505050505050565b61054b610991565b600082815260026020526040902080546001600160a01b031633146105b25760405162461bcd60e51b815260206004820152601760248201527f4f6e6c7920636c69656e742063616e2072656c6561736500000000000000000060448201526064016102f5565b60008160040183815481106105c9576105c9610e05565b60009182526020909120600490910201600381015490915060ff16156106205760405162461bcd60e51b815260206004820152600c60248201526b105b1c9958591e481c185a5960a21b60448201526064016102f5565b60038101805460ff1916600190811790915560028201549082015460009160649161064b9190610f92565b6106559190610faf565b905060008183600101546106699190610fd1565b60018501546040519192506000916001600160a01b039091169083908381818185875af1925050503d80600081146106bd576040519150601f19603f3d011682016040523d82523d6000602084013e6106c2565b606091505b50509050806107135760405162461bcd60e51b815260206004820152601d60248201527f5472616e7366657220746f20636f6e74726163746f72206661696c656400000060448201526064016102f5565b60008781526004602090815260408083208054825181850281018501909352808352919290919083018282801561077357602002820191906000526020600020905b81546001600160a01b03168152600190910190602001808311610755575b5050505050905060005b81518110156108bf576000612710600560008c815260200190815260200160002060008585815181106107b2576107b2610e05565b60200260200101516001600160a01b03166001600160a01b0316815260200190815260200160002054876107e69190610f92565b6107f09190610faf565b905080156108b657600083838151811061080c5761080c610e05565b60200260200101516001600160a01b03168260405160006040518083038185875af1925050503d806000811461085e576040519150601f19603f3d011682016040523d82523d6000602084013e610863565b606091505b50509050806108b45760405162461bcd60e51b815260206004820152601960248201527f5472616e7366657220746f20776f726b6572206661696c65640000000000000060448201526064016102f5565b505b5060010161077d565b505050505050506108d06001600055565b5050565b6108dc610912565b6001600160a01b03811661090657604051631e4fbdf760e01b8152600060048201526024016102f5565b61090f8161093f565b50565b6001546001600160a01b031633146103af5760405163118cdaa760e01b81523360048201526024016102f5565b600180546001600160a01b038381166001600160a01b0319831681179093556040519116919082907f8be0079c531659141344cd1fd0a4f28419497f9722a3daafe3b4186f6b6457e090600090a35050565b6002600054036109b457604051633ee5aeb560e01b815260040160405180910390fd5b6002600055565b828054828255906000526020600020908101928215610a10579160200282015b82811115610a1057825182546001600160a01b0319166001600160a01b039091161782556020909201916001909101906109db565b50610a1c929150610a20565b5090565b5b80821115610a1c5760008155600101610a21565b600060208284031215610a4757600080fd5b5035919050565b60008060408385031215610a6157600080fd5b50508035926020909101359150565b634e487b7160e01b600052604160045260246000fd5b604051601f8201601f1916810167ffffffffffffffff81118282101715610aaf57610aaf610a70565b604052919050565b600067ffffffffffffffff821115610ad157610ad1610a70565b5060051b60200190565b80356001600160a01b0381168114610af257600080fd5b919050565b600082601f830112610b0857600080fd5b8135610b1b610b1682610ab7565b610a86565b8082825260208201915060208360051b860101925085831115610b3d57600080fd5b602085015b83811015610b5a578035835260209283019201610b42565b5095945050505050565b600080600060608486031215610b7957600080fd5b83359250602084013567ffffffffffffffff811115610b9757600080fd5b8401601f81018613610ba857600080fd5b8035610bb6610b1682610ab7565b8082825260208201915060208360051b850101925088831115610bd857600080fd5b6020840193505b82841015610c0157610bf084610adb565b825260209384019390910190610bdf565b9450505050604084013567ffffffffffffffff811115610c2057600080fd5b610c2c86828701610af7565b9150509250925092565b60008060408385031215610c4957600080fd5b82359150610c5960208401610adb565b90509250929050565b60008060008060808587031215610c7857600080fd5b610c8185610adb565b9350602085013567ffffffffffffffff811115610c9d57600080fd5b8501601f81018713610cae57600080fd5b8035610cbc610b1682610ab7565b8082825260208201915060208360051b850101925089831115610cde57600080fd5b602084015b83811015610d8257803567ffffffffffffffff811115610d0257600080fd5b8501603f81018c13610d1357600080fd5b602081013567ffffffffffffffff811115610d3057610d30610a70565b610d43601f8201601f1916602001610a86565b8181526040838301018e1015610d5857600080fd5b81604084016020830137600060208383010152808652505050602083019250602081019050610ce3565b509550505050604085013567ffffffffffffffff811115610da257600080fd5b610dae87828801610af7565b925050606085013567ffffffffffffffff811115610dcb57600080fd5b610dd787828801610af7565b91505092959194509250565b600060208284031215610df557600080fd5b610dfe82610adb565b9392505050565b634e487b7160e01b600052603260045260246000fd5b634e487b7160e01b600052601160045260246000fd5b600060018201610e4357610e43610e1b565b5060010190565b600181811c90821680610e5e57607f821691505b602082108103610e7e57634e487b7160e01b600052602260045260246000fd5b50919050565b601f821115610ece57806000526020600020601f840160051c81016020851015610eab5750805b601f840160051c820191505b81811015610ecb5760008155600101610eb7565b50505b505050565b815167ffffffffffffffff811115610eed57610eed610a70565b610f0181610efb8454610e4a565b84610e84565b6020601f821160018114610f355760008315610f1d5750848201515b600019600385901b1c1916600184901b178455610ecb565b600084815260208120601f198516915b82811015610f655787850151825560209485019460019092019101610f45565b5084821015610f835786840151600019600387901b60f8161c191681555b50505050600190811b01905550565b8082028115828204841417610fa957610fa9610e1b565b92915050565b600082610fcc57634e487b7160e01b600052601260045260246000fd5b500490565b81810381811115610fa957610fa9610e1b56fea264697066735822122061c91834e1c38f00b16248ba5886dd7686bb2a31fb2322fa4a53c8af2963ba6a64736f6c634300081c0033",
  "linkReferences": {},
  "deployedLinkReferences": {}
}