{
  "_format": "hh-sol-artifact-1",
  "contractName": "PayCheckGuard",
  "sourceName": "contracts/PayCheckGuard.sol",
  "abi": [
    {
      "inputs": [],
      "stateMutability": "nonpayable",
      "type": "constructor"
    },
    {
      "inputs": [
        {
          "internalType": "address",
          "name": "owner",
          "type": "address"
        }
      ],
      "name": "OwnableInvalidOwner",
      "type": "error"
    },
    {
      "inputs": [
        {
          "internalType": "address",
          "name": "account",
          "type": "address"
        }
      ],
      "name": "OwnableUnauthorizedAccount",
      "type": "error"
    },
    {
      "inputs": [],
      "name": "ReentrancyGuardReentrantCall",
      "type": "error"
    },
    {
      "anonymous": false,
      "inputs": [
        {
          "indexed": true,
          "internalType": "address",
          "name": "previousOwner",
          "type": "address"
        },
        {
          "indexed": true,
          "internalType": "address",
          "name": "newOwner",
          "type": "address"
        }
      ],
      "name": "OwnershipTransferred",
      "type": "event"
    },
    {
      "inputs": [
        {
          "internalType": "uint256",
          "name": "_projectId",
          "type": "uint256"
        },
        {
          "internalType": "string",
          "name": "_content",
          "type": "string"
        }
      ],
      "name": "addEvidence",
      "outputs": [],
      "stateMutability": "nonpayable",
      "type": "function"
    },
    {
      "inputs": [
        {
          "internalType": "uint256",
          "name": "_projectId",
          "type": "uint256"
        },
        {
          "internalType": "bool",
          "name": "_refundToClient",
          "type": "bool"
        }
      ],
      "name": "arbitrate",
      "outputs": [],
      "stateMutability": "nonpayable",
      "type": "function"
    },
    {
      "inputs": [
        {
          "internalType": "address",
          "name": "_contractor",
          "type": "address"
        },
        {
          "internalType": "string",
          "name": "_title",
          "type": "string"
        },
        {
          "internalType": "string",
          "name": "_requirements",
          "type": "string"
        },
        {
          "internalType": "uint256",
          "name": "_durationSeconds",
          "type": "uint256"
        }
      ],
      "name": "createProject",
      "outputs": [],
      "stateMutability": "payable",
      "type": "function"
    },
    {
      "inputs": [
        {
          "internalType": "uint256",
          "name": "_projectId",
          "type": "uint256"
        }
      ],
      "name": "disputeRefund",
      "outputs": [],
      "stateMutability": "nonpayable",
      "type": "function"
    },
    {
      "inputs": [
        {
          "internalType": "uint256",
          "name": "_projectId",
          "type": "uint256"
        },
        {
          "internalType": "uint256",
          "name": "_index",
          "type": "uint256"
        }
      ],
      "name": "getEvidence",
      "outputs": [
        {
          "internalType": "address",
          "name": "",
          "type": "address"
        },
        {
          "internalType": "string",
          "name": "",
          "type": "string"
        },
        {
          "internalType": "uint256",
          "name": "",
          "type": "uint256"
        }
      ],
      "stateMutability": "view",
      "type": "function"
    },
    {
      "inputs": [
        {
          "internalType": "uint256",
          "name": "_projectId",
          "type": "uint256"
        }
      ],
      "name": "getEvidenceCount",
      "outputs": [
        {
          "internalType": "uint256",
          "name": "",
          "type": "uint256"
        }
      ],
      "stateMutability": "view",
      "type": "function"
    },
    {
      "inputs": [],
      "name": "nextProjectId",
      "outputs": [
        {
          "internalType": "uint256",
          "name": "",
          "type": "uint256"
        }
      ],
      "stateMutability": "view",
      "type": "function"
    },
    {
      "inputs": [],
      "name": "owner",
      "outputs": [
        {
          "internalType": "address",
          "name": "",
          "type": "address"
        }
      ],
      "stateMutability": "view",
      "type": "function"
    },
    {
      "inputs": [
        {
          "internalType": "uint256",
          "name": "",
          "type": "uint256"
        }
      ],
      "name": "projects",
      "outputs": [
        {
          "internalType": "address",
          "name": "client",
          "type": "address"
        },
        {
          "internalType": "address",
          "name": "contractor",
          "type": "address"
        },
        {
          "internalType": "uint256",
          "name": "totalBudget",
          "type": "uint256"
        },
        {
          "internalType": "string",
          "name": "title",
          "type": "string"
        },
        {
          "internalType": "string",
          "name": "requirements",
          "type": "string"
        },
        {
          "internalType": "uint256",
          "name": "deadline",
          "type": "uint256"
        },
        {
          "internalType": "enum PayCheckGuard.Status",
          "name": "status",
          "type": "uint8"
        }
      ],
      "stateMutability": "view",
      "type": "function"
    },
    {
      "inputs": [
        {
          "internalType": "uint256",
          "name": "_projectId",
          "type": "uint256"
        }
      ],
      "name": "releaseFunds",
      "outputs": [],
      "stateMutability": "nonpayable",
      "type": "function"
    },
    {
      "inputs": [],
      "name": "renounceOwnership",
      "outputs": [],
      "stateMutability": "nonpayable",
      "type": "function"
    },
    {
      "inputs": [
        {
          "internalType": "uint256",
          "name": "_projectId",
          "type": "uint256"
        }
      ],
      "name": "requestRefund",
      "outputs": [],
      "stateMutability": "nonpayable",
      "type": "function"
    },
    {
      "inputs": [
        {
          "internalType": "address",
          "name": "newOwner",
          "type": "address"
        }
      ],
      "name": "transferOwnership",
      "outputs": [],
      "stateMutability": "nonpayable",
      "type": "function"
    },
    {
      "inputs": [
        {
          "internalType": "uint256",
          "name": "_projectId",
          "type": "uint256"
        }
      ],
      "name": "triggerAutoPay",
      "outputs": [],
      "stateMutability": "nonpayable",
      "type": "function"
    }
  ],
  "bytecode": "0x6080604052348015600f57600080fd5b5060016000553380603a57604051631e4fbdf760e01b81526000600482015260240160405180910390fd5b6041816046565b506098565b600180546001600160a01b038381166001600160a01b0319831681179093556040519116919082907f8be0079c531659141344cd1fd0a4f28419497f9722a3daafe3b4186f6b6457e090600090a35050565b611219806100a76000396000f3fe6080604052600436106100dd5760003560e01c8063715018a61161007f578063e935b7b111610059578063e935b7b11461024e578063ef97eb3214610264578063f1b8a98c14610284578063f2fde38b146102b357600080fd5b8063715018a6146101f15780638da5cb5b14610206578063a4b2409e1461022e57600080fd5b80631c3665eb116100bb5780631c3665eb14610153578063423aee31146101735780634d68282f146101b15780635ee12a2c146101d157600080fd5b8063107046bd146100e257806310eeb69a1461011e5780631a2f36c914610140575b600080fd5b3480156100ee57600080fd5b506101026100fd366004610d14565b6102d3565b6040516101159796959493929190610d89565b60405180910390f35b34801561012a57600080fd5b5061013e610139366004610e07565b610431565b005b61013e61014e366004610efd565b61055a565b34801561015f57600080fd5b5061013e61016e366004610f7e565b610634565b34801561017f57600080fd5b506101a361018e366004610d14565b60009081526002602052604090206007015490565b604051908152602001610115565b3480156101bd57600080fd5b5061013e6101cc366004610d14565b61079e565b3480156101dd57600080fd5b5061013e6101ec366004610d14565b6108c4565b3480156101fd57600080fd5b5061013e610999565b34801561021257600080fd5b506001546040516001600160a01b039091168152602001610115565b34801561023a57600080fd5b5061013e610249366004610d14565b6109ad565b34801561025a57600080fd5b506101a360035481565b34801561027057600080fd5b5061013e61027f366004610d14565b610a78565b34801561029057600080fd5b506102a461029f366004610fc5565b610b3d565b60405161011593929190610fe7565b3480156102bf57600080fd5b5061013e6102ce36600461101b565b610c30565b600260208190526000918252604090912080546001820154928201546003830180546001600160a01b03938416959093169391926103109061103d565b80601f016020809104026020016040519081016040528092919081815260200182805461033c9061103d565b80156103895780601f1061035e57610100808354040283529160200191610389565b820191906000526020600020905b81548152906001019060200180831161036c57829003601f168201915b50505050509080600401805461039e9061103d565b80601f01602080910402602001604051908101604052809291908181526020018280546103ca9061103d565b80156104175780601f106103ec57610100808354040283529160200191610417565b820191906000526020600020905b8154815290600101906020018083116103fa57829003601f168201915b50505050600583015460069093015491929160ff16905087565b610439610c6b565b610441610c98565b60008281526002602052604090206003600682015460ff16600481111561046a5761046a610d73565b146104ad5760405162461bcd60e51b815260206004820152600e60248201526d4e6f7420696e206469737075746560901b60448201526064015b60405180910390fd5b600281018054600090915560068201805460ff19166004179055821561050c5781546040516001600160a01b039091169082156108fc029083906000818181858888f19350505050158015610506573d6000803e3d6000fd5b5061054a565b60018201546040516001600160a01b039091169082156108fc029083906000818181858888f19350505050158015610548573d6000803e3d6000fd5b505b50506105566001600055565b5050565b6000341161059c5760405162461bcd60e51b815260206004820152600f60248201526e0416d6f756e74206d757374203e203608c1b60448201526064016104a4565b60038054600091826105ad8361108d565b9091555060008181526002602081905260409091208054336001600160a01b03199182161782556001820180549091166001600160a01b038a1617905534918101919091559091506003810161060386826110f5565b506004810161061285826110f5565b5061061d83426111b4565b6005820155600601805460ff191690555050505050565b600082815260026020526040902080546001600160a01b0316331480610666575060018101546001600160a01b031633145b6106a25760405162461bcd60e51b815260206004820152600d60248201526c2737903832b936b4b9b9b4b7b760991b60448201526064016104a4565b6001600682015460ff1660048111156106bd576106bd610d73565b141580156106e457506004600682015460ff1660048111156106e1576106e1610d73565b14155b6107215760405162461bcd60e51b815260206004820152600e60248201526d141c9bda9958dd0818db1bdcd95960921b60448201526064016104a4565b604080516060810182523381526020808201858152429383019390935260078401805460018082018355600092835292909120835160039092020180546001600160a01b0319166001600160a01b0390921691909117815592519192919082019061078c90826110f5565b50604082015181600201555050505050565b6107a6610c98565b600081815260026020526040902080546001600160a01b031633146107fb5760405162461bcd60e51b815260206004820152600b60248201526a13db9b1e4818db1a595b9d60aa1b60448201526064016104a4565b6000600682015460ff16600481111561081657610816610d73565b1461085b5760405162461bcd60e51b8152602060048201526015602482015274537461747573206d7573742062652041637469766560581b60448201526064016104a4565b60028101805460009182905560068301805460ff1916600190811790915583015460405191926001600160a01b03909116916108fc84150291849190818181858888f193505050501580156108b4573d6000803e3d6000fd5b5050506108c16001600055565b50565b600081815260026020526040902060018101546001600160a01b031633146109205760405162461bcd60e51b815260206004820152600f60248201526e27b7363c9031b7b73a3930b1ba37b960891b60448201526064016104a4565b6002600682015460ff16600481111561093b5761093b610d73565b1461097e5760405162461bcd60e51b8152602060048201526013602482015272139bc81c99599d5b99081c995c5d595cdd1959606a1b60448201526064016104a4565b6006810180546003919060ff19166001835b02179055505050565b6109a1610c6b565b6109ab6000610cc2565b565b600081815260026020526040902080546001600160a01b03163314610a025760405162461bcd60e51b815260206004820152600b60248201526a13db9b1e4818db1a595b9d60aa1b60448201526064016104a4565b6000600682015460ff166004811115610a1d57610a1d610d73565b14610a625760405162461bcd60e51b8152602060048201526015602482015274537461747573206d7573742062652041637469766560581b60448201526064016104a4565b6006810180546002919060ff1916600183610990565b610a80610c98565b600081815260026020526040812090600682015460ff166004811115610aa857610aa8610d73565b14610ae95760405162461bcd60e51b8152602060048201526011602482015270537461747573206e6f742041637469766560781b60448201526064016104a4565b806005015442101561085b5760405162461bcd60e51b815260206004820152601860248201527f446561646c696e65206e6f74207265616368656420796574000000000000000060448201526064016104a4565b60006060600080600260008781526020019081526020016000206007018581548110610b6b57610b6b6111cd565b60009182526020909120600390910201805460028201546001830180549394506001600160a01b03909216928290610ba29061103d565b80601f0160208091040260200160405190810160405280929190818152602001828054610bce9061103d565b8015610c1b5780601f10610bf057610100808354040283529160200191610c1b565b820191906000526020600020905b815481529060010190602001808311610bfe57829003601f168201915b50505050509150935093509350509250925092565b610c38610c6b565b6001600160a01b038116610c6257604051631e4fbdf760e01b8152600060048201526024016104a4565b6108c181610cc2565b6001546001600160a01b031633146109ab5760405163118cdaa760e01b81523360048201526024016104a4565b600260005403610cbb57604051633ee5aeb560e01b815260040160405180910390fd5b6002600055565b600180546001600160a01b038381166001600160a01b0319831681179093556040519116919082907f8be0079c531659141344cd1fd0a4f28419497f9722a3daafe3b4186f6b6457e090600090a35050565b600060208284031215610d2657600080fd5b5035919050565b6000815180845260005b81811015610d5357602081850181015186830182015201610d37565b506000602082860101526020601f19601f83011685010191505092915050565b634e487b7160e01b600052602160045260246000fd5b6001600160a01b038881168252871660208201526040810186905260e060608201819052600090610dbc90830187610d2d565b8281036080840152610dce8187610d2d565b9150508360a083015260058310610df557634e487b7160e01b600052602160045260246000fd5b8260c083015298975050505050505050565b60008060408385031215610e1a57600080fd5b8235915060208301358015158114610e3157600080fd5b809150509250929050565b80356001600160a01b0381168114610e5357600080fd5b919050565b634e487b7160e01b600052604160045260246000fd5b600082601f830112610e7f57600080fd5b813567ffffffffffffffff811115610e9957610e99610e58565b604051601f8201601f19908116603f0116810167ffffffffffffffff81118282101715610ec857610ec8610e58565b604052818152838201602001851015610ee057600080fd5b816020850160208301376000918101602001919091529392505050565b60008060008060808587031215610f1357600080fd5b610f1c85610e3c565b9350602085013567ffffffffffffffff811115610f3857600080fd5b610f4487828801610e6e565b935050604085013567ffffffffffffffff811115610f6157600080fd5b610f6d87828801610e6e565b949793965093946060013593505050565b60008060408385031215610f9157600080fd5b82359150602083013567ffffffffffffffff811115610faf57600080fd5b610fbb85828601610e6e565b9150509250929050565b60008060408385031215610fd857600080fd5b50508035926020909101359150565b6001600160a01b038416815260606020820181905260009061100b90830185610d2d565b9050826040830152949350505050565b60006020828403121561102d57600080fd5b61103682610e3c565b9392505050565b600181811c9082168061105157607f821691505b60208210810361107157634e487b7160e01b600052602260045260246000fd5b50919050565b634e487b7160e01b600052601160045260246000fd5b60006001820161109f5761109f611077565b5060010190565b601f8211156110f057806000526020600020601f840160051c810160208510156110cd5750805b601f840160051c820191505b818110156110ed57600081556001016110d9565b50505b505050565b815167ffffffffffffffff81111561110f5761110f610e58565b6111238161111d845461103d565b846110a6565b6020601f821160018114611157576000831561113f5750848201515b600019600385901b1c1916600184901b1784556110ed565b600084815260208120601f198516915b828110156111875787850151825560209485019460019092019101611167565b50848210156111a55786840151600019600387901b60f8161c191681555b50505050600190811b01905550565b808201808211156111c7576111c7611077565b92915050565b634e487b7160e01b600052603260045260246000fdfea264697066735822122035e091d99ba139a9f2e6b378fe56a954dbc8323a4988313851e0c9c4969596cd64736f6c634300081c0033",
  "linkReferences": {},
  "deployedLinkReferences": {}
}